:020000020000FC
:0200000022C01C
:10000C0000C00F930FB70F93611711F0639508C0E1
:10001C0060E0203009F002C051E002C050E000C0A6
:10002C000F910FBF0F9118950F9300E40FBD09E0CE
:10003C000EBD00E109BF0F91089504E00EBF0FE55E
:10004C000DBF02E007BB0FEF01BB00E002BB71E08C
:10005C0050E060E020E039E946E6E6DF7894713064
:10006C0009F001C0F4C07230E9F37330D9F3743085
:10007C0009F001C012C1753009F001C030C17630F1
:10008C0089F37730B9F37830C9F3793009F001C0CE
:10009C004AC17A3009F001C064C17B30E9F37C308D
:1000AC00D9F37D3009F001C086C17E3009F001C062
:1000BC009FC17F3009F001C0B4C17031D9F27131E8
:1000CC00E9F2723109F001C0C4C1733109F001C009
:1000DC00DDC1743109F001C009C2753109F001C0EC
:1000EC001DC27631A9F3773109F001C02FC27831E6
:1000FC0009F001C04AC2793109F001C064C27A31F9
:10010C0009F001C07CC27B3109F001C094C27C3182
:10011C0009F001C0B2C27D3109F001C0CAC27E3102
:10012C0009F001C0E2C27F3109F001C0F6C27032A1
:10013C0009F001C00AC3713209F001C01EC372324A
:10014C0009F001C032C3733209F001C04DC37432DF
:10015C0009F001C061C3753209F001C075C3763274
:10016C0009F001C089C3773209F001C09DC3783210
:10017C0009F001C0B1C3793209F001C0C5C37A32AC
:10018C0009F001C0D9C37B3209F001C07FC17C32B8
:10019C0009F001C0ABC17D3209F001C0BFC17E3294
:1001AC0009F001C073C17F3209F001C0CFC17033B7
:1001BC0009F001C0EAC1713309F001C004C2723305
:1001CC0009F001C01CC2733309F001C034C274338E
:1001DC0009F001C052C2753309F001C06AC276330E
:1001EC0009F001C082C2773309F001C096C278339E
:1001FC0009F001C0AAC2793309F001C0BEC27A333A
:10020C0009F001C0D2C27B3309F001C0EDC27C33CE
:10021C0009F001C001C37D3309F001C015C37E3361
:10022C0009F001C029C37F3309F001C03DC370340C
:10023C0009F001C0A1C3713409F001C0B5C3723417
:10024C0009F001C0C9C3F89400E008BBFCCF20E062
:10025C0004E00BBD0BEF0ABD02E007BB1BEF7130D6
:10026C0031F0723039F0733011F0763019F073953B
:10027C0032BB03C0739542BB00C05130F1F721E093
:10028C001CED00E00FBD00E008BB5030F1F700E4BE
:10029C000FBD00E00BBD0ABDE2CE20E006E00BBDB9
:1002AC0007E40ABD15EB743039F0773011F070317A
:1002BC0019F0739532BB03C0739542BB00C051302B
:1002CC00F1F721E012E300E00FBD00E008BB503075
:1002DC00F1F700E40FBD00E00BBD0ABDC0CE20E07D
:1002EC0004E00BBD00E30ABD18EC753031F078303A
:1002FC0039F07E3029F0713101F0739532BB03C0B7
:10030C00739542BB00C05130F1F721E010E500E0DD
:10031C000FBD00E008BB5030F1F700E40FBD00E06A
:10032C000BBD0ABD9CCE20E004E00BBD0BEF0ABD5B
:10033C001BEF739542BB5130F1F750E05130F1F7A0
:10034C0021E01CED00E00FBD00E008BB5030F1F7E0
:10035C0051E05030F1F700E40FBD00E00BBD0ABDD9
:10036C007ECE20E003E00BBD03E50ABD1BEF7A3027
:10037C0039F07B3011F07C3019F0739532BB03C02F
:10038C00739542BB00C05130F1F750E015E8513085
:10039C00F1F721E01BEF00E00FBD00E008BB50308F
:1003AC00F1F751E015E55030F1F700E40FBD00E036
:1003BC000BBD0ABD54CE20E003E00BBD03E20ABD29
:1003CC0073951BEF32BB5130F1F750E016E9513009
:1003DC00F1F721E01AE500E00FBD00E008BB50305A
:1003EC00F1F751E000E40FBD00E00BBD0ABD37CEC4
:1003FC0020E004E00BBD00E30ABD739514EB42BB97
:10040C0050E05130F1F721E01CE300E00FBD00E0BB
:10041C0008BB5030F1F700E40FBD00E00BBD0ABD86
:10042C001ECE20E005E00BBD06E40ABD73951BEF64
:10043C0032BB5130F1F721E01BEF00E00FBD00E0C3
:10044C0008BB5030F1F700E40FBD00E00BBD0ABD56
:10045C0006CE20E004E00BBD0BEF0ABD02E007BBAB
:10046C0073951BEF42BB5130F1F750E05130F1F76F
:10047C0021E01CED00E00FBD00E008BB5030F1F7AF
:10048C0000E40FBD00E00BBD0ABDE9CD20E001E0AA
:10049C000BBD0EE30ABD1BEF733111F0763119F071
:1004AC00739532BB03C0739542BB00C05130F1F75A
:1004BC0050E05130F1F750E05130F1F750E051304D
:1004CC00F1F750E05130F1F750E014E65130F1F70C
:1004DC0021E01BEF00E00FBD00E008BB5030F1F74E
:1004EC0000E40FBD00E00BBD0ABDB9CD20E004E077
:1004FC000BBD0BEF0ABD739510EF42BB5130F1F7FA
:10050C0021E016E900E00FBD00E008BB5030F1F728
:10051C0000E40FBD00E00BBD0ABDA1CD20E004E05E
:10052C000BBD0BEF0ABD739514E632BB5130F1F7DE
:10053C0021E01AE000E00FBD00E008BB5030F1F7FD
:10054C0000E40FBD00E00BBD0ABD89CD20E001E049
:10055C000BBD01E50ABD73951BEF32BB5130F1F7B2
:10056C0050E010EA5130F1F721E01BEF00E00FBD35
:10057C0000E008BB5030F1F751E05030F1F700E4E7
:10058C000FBD00E00BBD0ABD6ACD20E001E00BBD44
:10059C0005E60ABD73951BEF42BB5130F1F750E0F5
:1005AC001EE15130F1F75130F1F721E012E300E098
:1005BC000FBD00E008BB5030F1F700E40FBD00E0C8
:1005CC000BBD0ABD4CCD20E001E00BBD0AE70ABD16
:1005DC0073951BEF32BB5130F1F71AE050E05130FC
:1005EC00F1F721E010E500E00FBD00E008BB503052
:1005FC00F1F700E40FBD00E00BBD0ABD30CD20E0EB
:10060C0001E00BBD01E90ABD73951BEF42BB5130F4
:10061C00F1F71AE050E05130F1F721E010E500E07D
:10062C000FBD00E008BB5030F1F700E40FBD00E057
:10063C000BBD0ABD14CD20E001E00BBD0AE70ABDDD
:10064C0073951BEF32BB5130F1F750E05130F1F79D
:10065C0050E018E75130F1F721E01BEF00E00FBD3F
:10066C0000E008BB5030F1F751E05030F1F700E4F6
:10067C000FBD00E00BBD0ABDF2CC20E004E00BBDC9
:10068C0004EB0ABD73951BEF42BB5130F1F750E000
:10069C0015E05130F1F721E01AE500E00FBD00E064
:1006AC0008BB5030F1F700E40FBD00E00BBD0ABDF4
:1006BC00D6CC20E003E00BBD06E90ABD73951BEF19
:1006CC0032BB5130F1F750E012E35130F1F721E039
:1006DC0014E600E00FBD00E008BB5030F1F700E479
:1006EC000FBD00E00BBD0ABDBACC20E003E00BBD92
:1006FC000BEB0ABD73951CED42BB5130F1F721E0B9
:10070C0014E600E00FBD00E008BB5030F1F700E448
:10071C000FBD00E00BBD0ABDA2CC20E001E00BBD7B
:10072C0009EF0ABD739518EC32BB5130F1F721E09B
:10073C0018E700E00FBD00E008BB5030F1F700E413
:10074C000FBD00E00BBD0ABD8ACC20E002E00BBD62
:10075C0007E10ABD739510EA42BB5130F1F721E075
:10076C0010E500E00FBD00E008BB5030F1F700E4ED
:10077C000FBD00E00BBD0ABD72CC20E002E00BBD4A
:10078C0007E30ABD739510EA32BB5130F1F721E053
:10079C0010E500E00FBD00E008BB5030F1F700E4BD
:1007AC000FBD00E00BBD0ABD5ACC20E002E00BBD32
:1007BC0007E10ABD73951BEF42BB5130F1F721E005
:1007CC001BEF00E00FBD00E008BB5030F1F751E02B
:1007DC005030F1F751E014E65030F1F700E40FBD62
:1007EC0000E00BBD0ABD3BCC20E006E00BBD07E4EE
:1007FC000ABD739518EC32BB5130F1F721E012E3CE
:10080C0000E00FBD00E008BB5030F1F700E40FBD75
:10081C0000E00BBD0ABD23CC20E004E00BBD0BEFC8
:10082C000ABD739510EF42BB5130F1F721E010E592
:10083C0000E00FBD00E008BB5030F1F700E40FBD45
:10084C0000E00BBD0ABD0BCC20E006E00BBD07E4BD
:10085C000ABD739512E832BB5130F1F721E010E577
:10086C0000E00FBD00E008BB5030F1F700E40FBD15
:10087C0000E00BBD0ABDF3CB20E004E00BBD0BEF99
:10088C000ABD739510EA42BB5130F1F721E012E337
:10089C0000E00FBD00E008BB5030F1F700E40FBDE5
:1008AC0000E00BBD0ABDDBCB20E004E00BBD00E398
:1008BC000ABD739518EC32BB5130F1F721E010E50D
:1008CC0000E00FBD00E008BB5030F1F700E40FBDB5
:1008DC0000E00BBD0ABDC3CB20E004E00BBD0BEF69
:1008EC000ABD739518EC42BB5130F1F721E014E6C8
:1008FC0000E00FBD00E008BB5030F1F700E40FBD85
:10090C0000E00BBD0ABDABCB20E004E00BBD00E367
:10091C000ABD739510EA32BB5130F1F721E016E4B1
:10092C0000E00FBD00E008BB5030F1F700E40FBD54
:10093C0000E00BBD0ABD93CB20E003E00BBD03E54B
:10094C000ABD1BEF739542BB5130F1F750E010EA32
:10095C005130F1F721E01BEF00E00FBD00E008BBC8
:10096C005030F1F751E015E55030F1F700E40FBDD0
:10097C0000E00BBD0ABD73CB20E006E00BBD07E425
:10098C000ABD739516E942BB5130F1F721E014E62C
:10099C0000E00FBD00E008BB5030F1F700E40FBDE4
:1009AC0000E00BBD0ABD5BCB20E004E00BBD00E317
:1009BC000ABD739510EA32BB5130F1F721E014E611
:1009CC0000E00FBD00E008BB5030F1F700E40FBDB4
:1009DC0000E00BBD0ABD43CB20E004E00BBD0BEFE8
:1009EC000ABD739510EF42BB5130F1F721E014E6CC
:1009FC0000E00FBD00E008BB5030F1F700E40FBD84
:080A0C0000E00BBD0ABD2BCB7D
:00000001FF
