:020000020000FC
:100000002CC0189518951895189518950AC018952C
:100010001895189518951895189518951895189578
:1000200018950F930FB70F93611711F0639508C0E0
:1000300060E0203009F002C051E002C050E000C092
:100040000F910FBF0F9118950F9300E40FBD09E0BA
:100050000EBD00E109BF0F91089504E00EBF0FE54A
:100060000DBF02E007BB0FEF01BB00E002BB71E078
:1000700050E060E020E039E946E6E6DF7894713050
:1000800071F1723061F1733051F17430F1F075300B
:10009000E9F0763021F17730C1F07830B9F079307D
:1000A000C1F07A30B9F07B30A9F07C3099F07D3026
:1000B00079F07E3049F07F3051F07031C9F1713103
:1000C00029F0723161F007C0D3C032C054C0EBC018
:1000D000B3C076C092C0F89400E008BBFCCF20E02B
:1000E00004E00BBD0BEF0ABD02E007BB73951BEFED
:1000F000713041F0723041F0733021F0763021F0F0
:10010000723111F032BB02C042BB00C05130F1F776
:1001100021E01CED00E00FBD00E008BB503000E026
:1001200002BBE1F700E40FBD00E00BBD0ABDA7CFA5
:1001300020E006E00BBD07E40ABD739515EB7430B3
:1001400031F0773011F0703111F032BB02C042BB98
:1001500000C05130F1F721E012E300E00FBD00E0F4
:1001600008BB503000E002BBE1F700E40FBD00E047
:100170000BBD0ABD84CF20E004E00BBD00E30ABD47
:10018000739518EC753031F0783031F07E3021F015
:10019000713101F032BBDDCF42BBDBCF5130F1F723
:1001A00021E018E700E00FBD00E008BB503000E0A0
:1001B00002BBE1F700E40FBD00E00BBD0ABD5FCF5D
:1001C00020E004E00BBD0BEF0ABD73951BEF51302F
:1001D000F1F750E05130F1F721E01CED00E00FBDE8
:1001E00000E008BB5030F1F751E05030F1F700E487
:1001F0000FBD00E00BBD0ABD42CF20E003E00BBD08
:1002000003E50ABD73951BEF5130F1F750E015E897
:100210005130F1F721E01BEF00E00FBD00E008BB1B
:100220005030F1F751E015E55030F1F700E40FBD23
:1002300000E00BBD0ABD23CF20E003E00BBD03E2CD
:100240000ABD73951BEF5130F1F750E016E95130BC
:10025000F1F721E01AE500E00FBD00E008BB5030E7
:10026000F1F751E000E40FBD00E00BBD0ABD07CF80
:1002700020E004E00BBD00E30ABD739514EB42BB24
:1002800050E05130F1F721E01CE300E00FBD00E049
:1002900008BB503000E002BBE1F700E40FBD00E016
:1002A0000BBD0ABDECCE20E005E00BBD06E40ABDA7
:1002B00073951BEF5130F1F721E01BEF00E00FBD0C
:1002C00000E008BB5030F1F700E40FBD00E00BBDCB
:0402D0000ABDD5CEC0
:00000001FF
